:020000040800F2
:100000008814002065020008593F0008A92500084F
:10001000553F0008E9040008F54100080000000011
:100020000000000000000000000000008140000807
:1000300029050008000000005D3F00088540000819
:100040007F0200087F0200087F0200087F0200088C
:100050007F0200087F0200087F0200087F0200087C
:100060007F0200087F0200087F0200087F0200086C
:100070007F0200087F0200087F0200087F0200085C
:100080007F0200087F0200087F0200087F0200084C
:10009000ED040008F90400087F0200087F02000850
:1000A0007F0200087F0200087F0200087F0200082C
:1000B0007F0200087F0200087F0200087F0200081C
:1000C0007F0200087F0200087F0200087F0200080C
:1000D0007F0200087F0200087F0200087F020008FC
:1000E0007F0200087F0200087F0200087F020008EC
:1000F0007F0200087F0200087F0200087F020008DC
:100100007F0200087F0200087F0200087F020008CB
:100110007F0200087F0200087F0200087F020008BB
:100120001D0500087F0200087F0200087F0200080A
:100130007F02000800000000000000007F020008AD
:1001400005050008110500087F0200087F0200086D
:100150007F0200087F0200087F0200087F0200087B
:100160007F0200087F0200087F0200087F0200086B
:100170007F0200087F0200087F02000800000000E4
:10018000000000007F0200080000000000000000E6
:100190007F02000800000000000000007F0200084D
:1001A0000000000000000000000000007F020008C6
:1001B0007F0200087F0200087F0200087F0200081B
:1001C0007F02000800F002F800F03CF80AA090E876
:1001D000000C82448344AAF10107DA4501D100F002
:1001E00031F8AFF2090EBAE80F0013F0010F18BF93
:1001F000FB1A43F00103184760930000809300004E
:10020000103A24BF78C878C1FAD8520724BF30C842
:1002100030C144BF04680C60704700000023002414
:1002200000250026103A28BF78C1FBD8520728BF06
:1002300030C148BF0B6070471FB505F051FF1FBDAF
:1002400010B510BD00F0D0F81146FFF7F5FF05F02E
:1002500095FC00F0EEF803B4FFF7F2FF03BC00F0EA
:10026000F5F800000948804709480047FEE7FEE727
:10027000FEE7FEE7FEE7FEE7FEE7FEE7FEE7FEE756
:1002800004480549054A064B704700009D40000898
:10029000C50100088808002088140020880C002070
:1002A000880C002053EA020C00F069802DE9F04B25
:1002B0004FF00006002B1FBFB3FA83F503FA05F4D5
:1002C00024FA05F65E4012BF1643B2FA82F502FA2E
:1002D00005F4C5F120051EBF22FA05FC44EA0C0412
:1002E000203556EA044C4FEA144418BF641C4FF002
:1002F00000084FF00009904271EB030C39D300293C
:1003000019BFB1FA81F701FA07F6B0FA80F700FADF
:1003100007F6C7F120071EBF20FA07FC46EA0C06C5
:100320002037B6FBF4FCA7EB0507103F07F01F0BC7
:10033000CBF120062CFA06F60CFA0BFB44BFB346B1
:100340000026202FA4BF5E464FF0000B5BEA060C90
:1003500008BF4FF0010B19EB0B0948EB0608ABFB8C
:10036000027C06FB02CC0BFB03CCC01B71EB0C0127
:10037000C1E70B46024641464846BDE8F08B13B53F
:10038000084318BF4FF0FF300146AFF30080BDE8CF
:100390001C4070474FF0000200B513469446964645
:1003A000203922BFA0E80C50A0E80C50B1F1200188
:1003B000BFF4F7AF090728BFA0E80C5048BF0CC036
:1003C0005DF804EB890028BF40F8042B08BF704794
:1003D00048BF20F8022B11F0804F18BF00F8012B06
:1003E0007047704770477047754600F02BF8AE466F
:1003F00005006946534620F00700854618B020B531
:10040000FFF73EFFBDE820404FF000064FF0000729
:100410004FF000084FF0000BAC46ACE8C009ACE868
:10042000C009ACE8C009ACE8C00921F007018D465D
:10043000704710B50446AFF300802046BDE8104079
:10044000FFF709BF0048704710000020014918203D
:10045000ABBEFEE726000200704700000146806B3D
:10046000036C026C13F0500F08D0D20648BF00F0A6
:100470001DB9806BC26C0846104700BF42F4007182
:10048000016401688A6812F0405F01D000F00AB987
:10049000027E002AFAD1CA6A12F4700F02D08A686A
:1004A0005205F3D44A6822F020024A60016C21F41C
:1004B00080710164016CC90448BF00F0F3B8016C9D
:1004C00041F00101016400F0EDB80000806B4021B3
:1004D0000164416C41F00401416400F0E7B80000A0
:1004E000806B00F0E1B80000FEE7000040F2E4009D
:1004F000C2F2000000F020BC40F2E400C2F20000B2
:1005000000F01ABC40F20C10C2F2000000F014BC63
:1005100040F20C10C2F2000000F00EBC40F23410A9
:10052000C2F2000000F09EBE70470000704700005D
:1005300070B581B00022009290F83C20012A03D1CE
:100540000221084601B070BD0E6801220A2E80F813
:100550003C2009D3B2B25200D0F800E012FA86F281
:100560001E3A0EF10C0305E0D0F800E006EB46025F
:100570000EF110034FF0070C1D680CFA02F4A543AE
:100580001D608D681C6805FA02F222431A604968F2
:1005900006290FD801EB81014A1F71461F2351F82C
:1005A000345F934025EA03030B60B3B203FA02F20F
:1005B00014E000BF01EB81030C29B2B204D87146EC
:1005C00051F8304F233B03E0714651F82C4F413B2B
:1005D0001F259D4024EA05059A400D600B6842F2F4
:1005E000043CC4F2010C1A43ACF541739E450A6009
:1005F00006D0002180F83C10084601B070BD00BF55
:100600001221112EC1F2000118BF8E423AD1DCF83E
:1006100000208E4222F48002CCF80020DCF800207A
:1006200042F40002CCF80020E3D140F20801C2F20B
:10063000000109684DF68362C4F21B32A1FB02126D
:10064000910C01EB81014900009100990029D0D063
:1006500000990139009100990029CAD00099013907
:10066000009100990029C4D00099013900910099A6
:100670000029BED000990139009100990029E7D1E5
:10068000B7E700BF122EB4D1DCF8001021F400014E
:10069000CCF80010DCF8001041F48001CCF8001018
:1006A000A7E7000070470000704700007047000097
:1006B000002804BF0120704710B50446006C0028D4
:1006C0003ED0206CC00645D4206C41F20211884314
:1006D000023042F204312064C4F20101086820F4BF
:1006E000403008600A6894E809101A43D4F810E012
:1006F0000A604168012321F4807141604168C0F6BD
:10070000007341EA0E214160416821F0407141606F
:10071000416841EA0C014160816821F40061816017
:10072000E168826811438160A16A8268994222F07F
:1007300070628260826813D122F0405119E000BFDC
:10074000204600F065F80020606484F83C00206CCE
:10075000C006B9D50120002184F83C1010BD00BFAF
:1007600011438160816821F040518160E16A8268B3
:1007700011438160816821F0020181608168227EDD
:1007800094F8203041EA42018160416883B141F42C
:100790000061416041684EF2000221F46041416015
:1007A000616ACFF6FF72436802EB4131194301E001
:1007B00021F400614160C16A40F2000C21F4700133
:1007C000C162E2696169CFF6F07CC36A0CEB025248
:1007D0001A43C262826822F40072826094F8302068
:1007E000836843EA42228260826822F480628260E7
:1007F000826842EA8121816000206064216C0122CC
:1008000062F301012164002184F83C1010BD000056
:1008100070B586B0044642F200002168C4F20100BF
:10082000002681420596049602D006B070BD00BF36
:1008300043F630010096C4F202014A6900F56040B7
:1008400042F480724A614A6902F480720092009A0E
:1008500000960A6842F001020A60096801F001018D
:1008600000910099022101910321CDE9021601A90D
:1008700000F0EEFE40F2341546F21040C2F20005E0
:10088000C4F202004FF48061C5E9000605F11000D2
:100890004FF400624FF400534FF4807C80E80E1058
:1008A0002846C5E90266C5E9086600F0BBFD0028D8
:1008B00018BFFFF73BFEA563AC6306B070BD000038
:1008C000B0B582B004460020019094F83C000128A5
:1008D00002D1022002B0B0BD94460A460120216830
:1008E00084F83C008868C00729D188684DF6836584
:1008F00040F00100886040F20800C2F20000006889
:10090000C4F21B35A0FB0505A80C00EB40000190CC
:100910000198A0B1019801380190019878B101982F
:1009200001380190019850B1019801380190019867
:1009300028B101980138019001980028EAD188680F
:10094000C00746D0206C40F20175A84300F58070C6
:1009500020644868400504D5206C012565F30D30FE
:100960002064256C0020ED044FF0000544BF656C49
:1009700025F00605656484F83C00A06B40F25D45F7
:1009800040F2E143C0F60005C0F60003C0E90F5392
:1009900040F2CD43C0F60003C3646FF022030B6046
:1009A0004B6842F2080543F080634B608B68C4F2E9
:1009B000010543F480738B604C31634600F0E4FD25
:1009C000D5F8FC122068C90606D0A5F108018842B6
:1009D0002CD0002002B0B0BD42F20001C4F20101EF
:1009E000884217D042F20021C4F2010188420DD0A2
:1009F00042F20011C4F201018842EAD1D5F8FC129A
:100A0000C90607D005F5FC718842E2D1D5F8FC1281
:100A1000C906DED4816811F0405FDAD1816841F007
:100A200080418160002002B0B0BD00BF286810F096
:100A3000405FCED1286840F080402860002002B09E
:100A4000B0BD000090F82020013A012A08D80068C3
:100A500000F114020020136819431160704700BFB1
:100A600000F1240201204FF4802113681943116022
:100A70007047000010B590F820E0D0F800C0AEF14B
:100A8000010EBEF1010FDCF808E011D81EF0E05FA6
:100A900018D0CEF3016EBEF1030F1DD100F1240179
:100AA00001204FF400020B681A430A6010BD00BF1A
:100AB00000F1240101204FF480220B681A430A60E0
:100AC00010BD00BF00F1240101204FF400120B689B
:100AD0001A430A6010BD00BF012000FA0EF0186032
:100AE000886828B14B68CC6844EAC303034303E039
:100AF0000868CB6843EA40530CEB0E10C0F8803115
:100B00000B69C0F88431097D012905D100F5C27156
:100B10000B6843F480730B605168C0F88C11126845
:100B200000F5C071C0F88821002001220B681A432B
:100B30000A6010BDB0B590F82020013A012A2FD8E4
:100B400046F20060C4F20000026842F00102026056
:100B5000026822F47C520260D1F814E0CC694A6A3F
:100B60000368012C43EA022202600EF01F024FF0DC
:100B7000010303FA02F2C3696FEA020C23EA0203DB
:100B8000C36113D02CBBC36803EA0C03C360CB68FA
:100B90008C8844EA034300EBCE0423640B4611E047
:100BA000416A41F4802141620120B0BDC368134312
:100BB000C3600B688C8844EA034300EBCE042364D3
:100BC00001F10C038C681B8843EA044300EBCE045C
:100BD000636443688D6943EA0204D1F810E0096A4E
:100BE000002D08BF03EA0C0444604369BEF1000F06
:100BF00043EA020408BF03EA0C040129446102D15C
:100C0000C1691143C161016821F001010160002047
:100C1000B0BD00007047000010B590F82040013CC6
:100C2000012C71D8D0F800C0002977D0DCF8104032
:100C3000A40777D00CEB011CDCF8B0410CF5D87E92
:100C400014F004049460DCF8B04119BFE408546067
:100C5000640D1460DEF80040002904F00204D46042
:100C6000DCF8B44104F00F041461DCF8B441C4F3BF
:100C700007249461DCF8B4414FEA14445461DCF871
:100C8000B8211A70026802EB0112D2F8B8214FEABB
:100C900012225A70026802EB0112D2F8B8214FEA10
:100CA00012429A70026802EB0112D2F8B8214FEAA0
:100CB0001262DA70026802EB0112D2F8BC211A71DA
:100CC000026802EB0112D2F8BC214FEA12225A71DB
:100CD000026802EB0112D2F8BC214FEA12429A716B
:100CE000026802EB0112D2F8BC214FEA1262DA71FB
:100CF000006814BF00F1100100F10C010020202257
:100D00000B681A430A6010BD00F1240101204FF462
:100D100080220B681A430A6010BD00BFDCF80C404B
:100D2000A40787D100F1240101204FF400120B68C1
:100D30001A430A6010BD00002DE9F04F81B004464F
:100D400000684669D0F804908768D0F80CB0D0F8F5
:100D500010A0D0F81880F10704D1002530071DD469
:100D600024E000BFF90710D00121BA07816009D43F
:100D7000780700F1AF80380700F1B680204600F018
:100D800063FA02E0204600F061FA0025F80500F160
:100D90008780F80300F1B180300707D51BF0100001
:100DA00004D0206845F400751021C160700708D593
:100DB0001BF0080005D020680821C160204600F023
:100DC000FBF9B00706D52068C068800702D020462E
:100DD00000F0F4F9700607D51AF0100004D020686E
:100DE00045F4806510210161B00608D51AF00800AD
:100DF00005D0206808210161204600F0F1F9F006D5
:100E000006D520680069800702D0204600F0EAF984
:100E1000B00308D519F0100005D0206810214160FA
:100E2000204600F0E1F9F00308D519F0080005D0DC
:100E3000206808214160204600F012FA300440F199
:100E40009B805FEA497040F1948006F4807008EA64
:100E5000102028435FEA8871014648BF41F0020133
:100E6000B20558BF01465FEA48700D4648BF45F0DD
:100E70000405700558BF0D46300540F17A8018F022
:100E8000700000F076801038000905286CD8DFE883
:100E900000F003595D61656945F0080564E000BF35
:100EA00020684FF48071BA0581600BD4780515D4A1
:100EB00038051DD4204600F0CBF9F8037FF56CAF60
:100EC0001BE000BF204600F0C5F9F8037FF564AFD2
:100ED00013E000BF4FF4006558E700BF05F500556B
:100EE000F8037FF559AF08E04FF480554EE700BF97
:100EF00005F58045F8037FF54FAF20684FF480314A
:100F0000BA0381600AD4780310D4380314D420467D
:100F100000F0A2F930073FF541AF47E7204600F067
:100F20009DF930073FF53AAF40E700BF05F50045B2
:100F300030073FF533AF39E705F5803530073FF52A
:100F40002DAF33E745F010050EE000BF45F020055A
:100F50000AE000BF45F0400506E000BF45F080050F
:100F600002E000BF45F480752068816921F07001BE
:100F7000816120680421416055B1606A40EA050141
:100F80002046616201B0BDE8F04FFFF743BE00BFED
:100F900001B0BDE8F08F0000B0B5C8B1044690F8CC
:100FA000200010B9204600F071F82068016821F097
:100FB0000201016000F03AFC054600BF206841686C
:100FC000890707D500F032FC401B0B28F6D312E04E
:100FD0000120B0BD016841F00101016000F026FC74
:100FE000054600BF20684168C9070DD100F01EFC0E
:100FF000401B0B28F6D3606A052140F40030606284
:10100000012084F82010B0BD217E0268012922F061
:10101000800208BF80320260617E0268012922F0EE
:10102000400208BF40320260A17E0268012922F01E
:10103000200208BF20320260E17E0268012922F00E
:10104000100218BF10320260217F0268012922F0CD
:10105000080208BF08320260617F0268012922F09D
:10106000040208BF04320260D4E901C2D4E90335A6
:1010700061691A432A431143ACF101021143C16172
:1010800000200121606284F82010B0BDB0B586B0A8
:10109000006846F60002C4F2000200219042CDE949
:1010A0000411CDE90211019130D046F20041C4F2A1
:1010B000000188427DD140F28C01C2F200010A6831
:1010C00043F64000C4F20200531C0B6052B90021E9
:1010D0000091016841F000710160016801F0007148
:1010E000009100990021009150F8101C152441F046
:1010F000020140F8101C50F8100C142500F00200FA
:10110000009000984FF4407033E000BF43F6400079
:10111000C4F202000091016841F080610160016841
:1011200001F080610091009940F28C01C2F200014F
:101130000A68531C0B6052B900210091016841F00C
:1011400000710160016801F00071009100990021B7
:10115000009150F8101C412441F0020140F8101C8D
:1011600050F8100C402500F00200009000984FF459
:101170004050019002200290002003900320049030
:101180000920059040F20040C4F2020001A900F0DD
:101190005FFA28460021002200F0CCFB284600F030
:1011A000B5FB20460021002200F0C4FB204600F0E1
:1011B000ADFB06B0B0BD00007047000040F2E40196
:1011C000C2F20001884208BF03F098B840F20C1147
:1011D000C2F20001884218BF704703F0B5B80000A2
:1011E000704700007047000070470000B0B504462B
:1011F00090F8200001281DD1022084F820002068EA
:10120000016821F00101016000F010FB054600BFFC
:1012100020684068C00713D000F008FB401B0B2873
:10122000F6D3606A40F400306062052084F8200044
:101230000120B0BD606A40F4002060620120B0BDB2
:1012400000206062B0BD00007047000070470000E1
:1012500070470000704700007047000070470000B2
:1012600070470000F0B581B004460020009040F2C5
:101270000800C2F200000268D4E9166048F2B51313
:1012800037680821C1F64E3381403942A2FB03255D
:101290000CD0226813685B0708D5136823F0040399
:1012A0001360B160616D41F0010161650121814010
:1012B000394208D022685269120604D5B160616DC6
:1012C00041F00201616504218140394208D0226861
:1012D0001268920704D5B160616D41F00401616547
:1012E00010218140394217D020680268120713D5B7
:1012F000B16002680168520308D4C90508D40168C6
:1013000021F008010160216C21B905E008033FD4F8
:10131000216C09B120468847E16D202000FA01F2D6
:101320003A4241D020680368DB063DD5B26094F8AC
:1013300035300268052B1BD122F01602026042698B
:1013400022F080024261226C0AB9A26C1AB10268D2
:1013500022F0080202603F208840B060002084F83C
:101360003400012084F83500216D002952D157E066
:101370000168520310D4C90512D4016821F010018C
:101380000160002084F83400012084F8350007E073
:10139000A16C0029BED1BFE7080301D4616C00E055
:1013A000E16B09B120468847606DC8B3606DC00726
:1013B0002ED0052084F835002068A90A026822F0A2
:1013C00001020260009A01328A4200921AD8026831
:1013D000D20717D0009A01328A42009212D80268CE
:1013E000D2070FD0009A01328A4200920AD80268CE
:1013F000D20707D0009A01328A42009202D80268CE
:10140000D207DFD1002084F83400012084F83500B1
:10141000E16C29B1204601B0BDE8F040084700BFAB
:1014200001B0F0BD2DE9F041044600F0FFF9ECB148
:101430000546002084F83400022084F83500206836
:10144000016821F00101016021680868C00711D01E
:1014500000F0ECF9401B0528F6D9032520230320D2
:10146000636584F83550BDE8F08100BF0120BDE818
:10147000F08100BF086848F23F02CFF21002D4E9C1
:10148000013500EA020C04F10C0898E8C10143EAB6
:101490000C032B431843D4E9072E30433843104341
:1014A000626A40EA0E00042A40EA08031CD1206B5D
:1014B000D4E90A2E40EA0E00184308604869BEF1DC
:1014C000000F20F0030040EA020040F0040C11D0AD
:1014D000B8F5005F36D0B8F1000F45D1022A46D0EA
:1014E000012A3BD032B942E00B60486920F0070086
:1014F00040EA020C01F0F8004AF6AB221038CAF6B6
:10150000AA22A0FB02231A0949F2FE43C0F60003F7
:101510009A5C40F2FF335F284FF03F00C1F814C0DF
:1015200021EA030100FA02F088BF0431C4E916126F
:101530008860002301250020636584F83550BDE8EC
:10154000F08100BF032AD5D8012540230120DFE820
:1015500002F0030E030500BF82E700BFAEF1C070CA
:10156000B0FA80F0400904E0032A04D3C2D1CEF3DC
:1015700000600028BED0012540230120636584F867
:101580003550BDE8F081000070B590F834C0BCF172
:10159000010F46D04FF0010C80F834C0D0F858E06D
:1015A00090F835C0BCF1010F38D14FF0020C80F833
:1015B00035C04FF0000CC0F854C0D0F800C08468AB
:1015C000056CC06DDCF80060402C26F48026CCF859
:1015D0000060CCF804300B4604BF13460A463F2196
:1015E00001FA00F0CCF80830CCF80C20CEF8080056
:1015F000DCF8000040F01600CCF800002DB1DCF85B
:10160000000040F00800CCF80000DCF8000040F0DA
:101610000100CCF80000002070BD00BF002180F860
:101620003410022070BD0000B0B5044600F0FEF892
:10163000054640F20000C2F200000078611C18BFAD
:10164000044400BF00F0F2F8401BA042FAD3B0BD42
:101650002DE9F04F82B000F13E4241F6000502F163
:10166000FF77C4F20205072243F6004E4FEAB72681
:10167000A84208BF0622C4F2010E062E38BF4FEA68
:10168000B7224FF0010A002600274FF00008009211
:1016900008E000BF023708F10108202F06F1040618
:1016A00000F0AC800C680AFA08F914EA090FF1D0CE
:1016B000D1F804C0BCF1120F00F298800AFA0CF4C1
:1016C00014F0061F00F0928084680322CD68BA40AF
:1016D0009443BD402C43846044686FEA020B24EAC3
:1016E00009024FEA1C1404FA08F44FEA480A22439C
:1016F0004260C2688C6802EA0B0204FA0AF42243D0
:101700004CF01004122CC26012D16FF0030202EAF6
:1017100058020244D2F820C006F01C040F230D69C1
:10172000A3402CEA0303A5402B431362D1F804C065
:1017300002680CF0030302EA0B0203FA0AF31A43ED
:101740005FEACC034FF0010A0260A3D5002243F602
:1017500044030192C4F202031A684FF6084C42F4A3
:1017600080421A601A68CFF6FF7C02F48042019230
:10177000019A28F00302724452F80C3006F00C056E
:101780000F24AC40A343009C04FA05F52B4342F818
:101790000C30DEF800204B6842EA0905DC0358BF34
:1017A00022EA0905CEF80050DEF804209C0342EA44
:1017B000090558BF22EA0905CEF80450DEF80820D2
:1017C000DC0242EA090543F60C4458BF22EA090547
:1017D000CEF80850C4F2010422689B0242EA0905CF
:1017E00058BF22EA0905256054E700BF032202FA28
:1017F00007F46FEA040BBA467BE700BF02B0BDE80E
:10180000F08F00000069084018BF012070470000F9
:1018100042690A408A4208BF09048161704700009A
:10182000002A08BF090481617047000040F6840067
:10183000C2F200000068704740F2000040F68401E8
:10184000C2F20000C2F2000100780A681044086089
:101850007047000080B543F60040C4F20200016802
:1018600041F400710160016841F480610160016828
:1018700041F480710160032000F088F8002000F03E
:1018800005F800F027F8002080BD000070B540F298
:101890000006C2F2000640F208013278C2F20001EE
:1018A0004FF47A730968B3FBF2F20446B1FBF2F12C
:1018B000084600F075FC0F2C4FF0010508D838B928
:1018C0004FF0FF3021460022002500F033F874600D
:1018D000284670BD82B0002043F640010190C4F25A
:1018E00002014A6842F480424A604A6802F4804237
:1018F0000192019A0090086840F0805008600868E2
:1019000000F080500090009802B07047002848BF57
:101910007047C1B200F01F00012202FA00F04EF23F
:101920000012CEF2000242EAD10121F00301086068
:101930007047000010B54EF60C5CCEF2000CDCF8DF
:101940000030C3F3022E8EF00704042C28BF0424B9
:10195000BEF103034FF0FF3E0EFA04F438BF00233C
:10196000A14399400EFA03F39A43114300F00F028A
:1019700000F160430901043A03F56443624400281E
:1019800048BF02F10C03197010BD00004EF60C5157
:10199000CEF200010A684FF6FF031A4060F30A22F4
:1019A00042F0806040F0FD70086070472DE9F04122
:1019B000002800F08B8043F60808C4F202080446B1
:1019C000D8F8F8030D4600F00F00884207D288F8D7
:1019D000F853D8F8F80300F00F00A84276D1206839
:1019E000810717D5410705D5D8F8001041F4E0511B
:1019F000C8F80010010705D5D8F8001041F460417F
:101A0000C8F80010D8F80010A26821F0F0011143C6
:101A1000C8F80010C0073FD1D8F8F80300F00F0055
:101A2000A84207D988F8F853D8F8F80300F00F0057
:101A3000A8424BD12068410707D5D8F80010E268CA
:101A400021F4E0511143C8F80010000708D5D8F878
:101A50000000216920F4604040EAC100C8F800009D
:101A600000F054F8D8F8001046F2FA02C1F303115E
:101A7000C0F60002515C40F2080220FA01F140F287
:101A80000400C2F200000068C2F200021160FFF719
:101A9000FDFE0020BDE8F0816068811E022907D2AA
:101AA00058F8081C89015CBF0120BDE8F08111E0F5
:101AB000012807D158F8081C89035CBF0120BDE844
:101AC000F08107E058F8081C890703D40120BDE81D
:101AD000F08100BFD8F8001021F003010843C8F8D6
:101AE0000000FFF7A3FE064641F28837D8F8000051
:101AF000616800F00C00B0EB810F8DD0FFF796FE0F
:101B0000801BB842F2D90320BDE8F08110B543F63E
:101B10000404C4F202046068C0F3810142F2004090
:101B2000C0F2F400DFE801F04302082841F600307B
:101B3000C0F2B70010BD00BF2068216823684902C9
:101B400041F60031C0F2B70100F03F02C3F3881044
:101B50005CBF42F20041C0F2F401A1FB000100238E
:101B6000FEF7A0FB21680222C1F3014102EB410113
:101B7000B0FBF1F010BD00BF206821682368490266
:101B800041F60031C0F2B70100F03F02C3F3881004
:101B90005CBF42F20041C0F2F401A1FB000100234E
:101BA000FEF780FB2168C1F30271B0FBF1F010BDBC
:101BB0002DE9F04182B00446007843F60006C007E4
:101BC000C4F202062BD0B06800F00C00042821D02B
:101BD000B06800F00C00082802D17068400219D4E7
:101BE000B06800F00C000C2802D17068400211D4DB
:101BF0006068B0F5803F07D0B0F5A02F40F00C81B1
:101C0000306840F480203060306840F480303060CC
:101C10000CE100BF3068800301D5606890B3207884
:101C2000800720D5B06810F00C0F0FD0B06800F01E
:101C30000C00082802D17068400207D5B06800F097
:101C40000C000C286ED1706840026BD4306880079D
:101C500002D5E068012815D13068216920F0F8002C
:101C600040EAC1003060207800070FD42078400798
:101C700022D4A569002D00F00F81B06800F00C009F
:101C8000082879D1012002B0BDE8F0816069002800
:101C90005ED00020C4F247200121C0F8801EFFF76B
:101CA000C5FD0546706F8007E0D4FFF7BFFD401B00
:101CB0000228F7D9C7E000BF306C10F080580AD175
:101CC00000200190306C40F080503064306C00F0A7
:101CD00080500190019847F20007C4F2000738686D
:101CE000C00511D4386840F480703860FFF79EFD5D
:101CF000054600BF3868C00506D4FFF797FD401BB6
:101D00000228F7D99FE000BFA068012805D0052868
:101D100054D1306F40F004003067306F40F0010064
:101D2000306755E0E068002862D00020C4F2472008
:101D300001210160FFF77AFD054600BF306880078A
:101D40003FF58AAFFFF772FD401B0228F6D97AE013
:101D50000020C4F247200021C0F8801EFFF766FD76
:101D6000054600BF706F80077FF580AFFFF75EFD0F
:101D7000401B0228F6D966E00027C4F2472700205E
:101D80003866FFF753FD022D05460BD13068800100
:101D90005ED5FFF74BFD401B02284FF00300F5D93D
:101DA000A9E000BF3068800176D5FFF73FFD401BFA
:101DB00003284FF00300F5D39DE000BF316F0028EA
:101DC00021F001013167316F21F00401316767D0E3
:101DD000FFF72CFD054641F2883700BF306F8007C2
:101DE00070D4FFF723FD401BB842F7D92BE000BFAA
:101DF0000020C4F2472000210160FFF717FD0546CF
:101E0000306880077FF52FAFFFF710FD401B0228D9
:101E10004FF00300F4D96EE03168002821F48031DE
:101E20003160316821F48021316055D0FFF7FEFC2C
:101E3000054600BF306880033FF5F1AEFFF7F6FCC2
:101E4000401B6428F6D9032002B0BDE8F08100BF32
:101E500004F11C052FCD246B084340EA8210D903FE
:101E60004FF6FF729143A1F5803140EA05600843C7
:101E700040EA0470706001203866FFF7D7FC044622
:101E80003068800108D4FFF7D1FC001B02284FF016
:101E90000300F5D92FE000BF002002B0BDE8F081BB
:101EA000FFF7C4FC054641F2883700BF306F80075A
:101EB00008D5FFF7BBFC401BB8424FF00300F5D933
:101EC00019E000BFB8F1000F7FF4D3AE306C20F002
:101ED00080503064CDE600BFFFF7A8FC054600BF88
:101EE000306880037FF59BAEFFF7A0FC401B6428A1
:101EF0004FF00300F4D902B0BDE8F08170B5A8B38B
:101F000000268662054690F8510020B9284685F8DB
:101F1000506000F02DF8022085F8510095E8071078
:101F20001143036841EA0C0123F0400303602A696E
:101F3000EC691143D5E90523114303F40072114301
:101F40002A6A2143AC6A11432143016004216A6A71
:101F500001EA134111434160C16921F40061C1618B
:101F600001206E6585F85100304670BD012070BDBE
:101F700080B586B0016843F20000C4F201008142DE
:101F800002D006B080BD00BF002143F630020191AF
:101F9000C4F20202536900F5504043F48053536188
:101FA000536903F480530193019B0191136843F03B
:101FB00001031360126802F001020192019AA0224B
:101FC00001920222CDE9022103210491052105910C
:101FD00001A9FFF73DFB06B080BD00002DE9F043ED
:101FE00081B0044690F85000012803D1022001B0CE
:101FF000BDE8F0834FF001091D4616460F4684F8F0
:102000005090FFF713FC94F85110012940D18046FD
:10201000002F4FF0010018BF002E00F0B880032001
:10202000002184F8510061652763A686E686A163D6
:10203000A187E187A0682164B0F5004F2068616442
:1020400003D1016841F4804101600168490603D46D
:10205000016841F0400101606168731EE268B1FAF5
:1020600081F1B3FA83F349095B09B2F5006F41EAE4
:1020700003013BD131B137F8021BC1602763E08E09
:102080000138E086E08E00286AD0681C0DD11CE083
:1020900002207CE0216B31F8022BC2602163E08ECC
:1020A0000138E086E08E00285AD0206881688907D0
:1020B000F0D4FFF7BBFBA0EB0800A842F2D338E056
:1020C000FFF7B4FBE08E00284AD0206881688907BA
:1020D000F6D5216B31F8022BC2602163E08E013806
:1020E000E086E08E0028F0D13AE000BF39B13978BF
:1020F0000173206B01302063E08E0138E086E08EB2
:1021000070B3681C0BD11BE0216B09780173206B45
:1021100001302063E08E0138E086E08E00B3206855
:1021200081688907F0D4FFF781FBA0EB0800A84283
:10213000F3D303202BE000BFFFF778FBE08E78B1EC
:10214000206881688907F7D5216B09780173206BB6
:1021500001302063E08E0138E086E08E0028EFD168
:1021600020462946424601F0FBFE00281CBF2020E5
:102170006065A06838B9002000902068C1680091AF
:10218000806800900098606D002818BF0120002131
:1021900084F8519084F8501001B0BDE8F08300003D
:1021A000411E0020B0EB116F1CBF012070474EF2A2
:1021B0001002CEF2000251604EF62351CEF2000121
:1021C000F0230B700721906011607047B0B590F854
:1021D0003C20012A04BF0220B0BD01F108053CCD1E
:1021E000D1E900CE23F47C5322F470521A432EF42A
:1021F000F0431A432CF4E0431A4324F4C0431A4337
:102200002A43C96922F480420368114359640021BA
:1022100080F83C100846B0BD10B590F83C20012A6B
:102220004FF0020251D080F83D200268D2F804E05D
:10223000D2F808C00C682EF07003234341F2FF74FB
:10224000C4F20004A24253600EDC40F2FF73C4F2F9
:1022500000039A4216DCB2F1804F2BD040F20043CB
:10226000C4F2000324E000BF40F2FF33C4F20103D4
:102270009A4213DC41F60003C4F200039A4219D0DB
:10228000002313E040F60003C4F200039A4211D089
:1022900040F60043C4F200030AE000BF44F200032A
:1022A000C4F201039A4205D040F20043C4F2010394
:1022B0009A4204D149682CF08003194391600121AE
:1022C000002280F83D1080F83C20104610BD000030
:1022D0002DE9F04390F83C30012B4FF0020300F061
:1022E00002814FEAB202032A80F83D3000F2F58005
:1022F000DFE802F0023E7EBE036840F200471A6A41
:1023000043F4806522F001021A621C6A1A46D3F86F
:1023100004E052F818CF8E6824F00204C4F20107DA
:10232000BD4244EA060405D1CE6824F00C0426F030
:10233000040634430E68BD4207D1D1E905572EF497
:10234000407E45EA0E0545EA070E2CF07307374339
:10235000C3F804E09F614F6809695F631C629F696D
:1023600047F008079F619F6927F004079F61B1E06C
:10237000036840F200481A6A43F4806522F01002B4
:102380001A621C6A1A46D3F804C052F818EF8F6814
:1023900024F02004C4F20108454544EA071407D19B
:1023A000CF686FF0400624F0C00406EA07163443F5
:1023B000D1F80090454506D1D1E905562CF4406787
:1023C0002E4347EA860C2EF4E64747EA0927C3F86E
:1023D00004C09F614F6809699F631C629F6947F44D
:1023E00000679F619F6927F480679F6171E000BF6C
:1023F000036840F200481A6A43F4806522F4807250
:102400001A621C6A1A46D3F804C052F81CEF8F688F
:1024100024F40074C4F20108454544EA072408D1B5
:10242000CF6840F2FF463F0224F4406427EA0606E4
:102430003443D1F80090454506D1D1E905562CF436
:1024400040572E4347EA061C2EF0730747EA090758
:10245000C3F804C0DF614F680969DF631C62DF698C
:1024600047F00807DF61DF6927F00407DF6131E02B
:10247000036840F200451A6A43F4806722F48052F0
:102480001A621A46D3F820C05C6852F81CEFD1F8E3
:1024900000808E68C4F20105AF4204D14D6924F476
:1024A000804444EA85142CF4005747EA06372EF49A
:1024B000E64646EA08265C60DE614E6809691E64ED
:1024C0001F62DF6947F40067DF61DF6927F4806717
:1024D000DF6109021368194311600121002380F8AC
:1024E0003D1080F83C301846BDE8F083002804BF5A
:1024F0000120704710B5044690F83D0028B900202F
:1025000084F83C00204600F00DF8022084F83D00DD
:102510002068211D01F0D0FD012084F83D0000203D
:1025200010BD000081B000680021C4F201018842A2
:1025300002D001B0704700BF0020009043F6440075
:10254000C4F20200016841F001010160006800F07E
:1025500001000090009801B070470000006801F091
:102560001F010122036A02FA01F123EA0102026259
:10257000D0F820C040F2004240F48063C4F201026F
:10258000934241EA0C01016203D1416C41F40041E4
:102590004164816801F00701062903D0016841F018
:1025A0000101016000207047FEE700002DE9F047BF
:1025B00084B00025C4F2020505F500649246894600
:1025C00007462046022100229846FFF729F92A20D3
:1025D0008DF80500284610210022FFF721F940F26E
:1025E0009416C2F200060DF10501304601224FF6A5
:1025F000FF73FFF7F3FC284610210122FFF710F9C3
:10260000204602210122FFF70BF91437380A8DF812
:102610000600284610210022FFF702F90DF10601FD
:10262000304601224FF6FF73FFF7D8FC28461021F1
:102630000122FFF7F5F82846102100228DF80770D7
:10264000FFF7EEF80DF10701304601224FF6FF7358
:10265000FFF7C4FC284610210122FFF7E1F80AF138
:102660001407380A8DF80800284610210022FFF7C9
:10267000D7F802A9304601224FF6FF73FFF7AEFCF0
:10268000284610210122FFF7CBF82846102100220E
:102690008DF80970FFF7C4F80DF1090130460122E9
:1026A0004FF6FF73FFF79AFC284610210122FFF72F
:1026B000B7F8204602210022FFF7B2F82B208DF850
:1026C0000A00284610210022FFF7AAF80DF10A019E
:1026D000304601224FF6FF73FFF780FC2846102199
:1026E0000122FFF79DF8204602210122FFF798F80A
:1026F0004FEA19208DF80B00284610210022FFF721
:102700008FF80DF10B01304601224FF6FF73FFF7F2
:1027100065FC284610210122FFF782F82846102187
:1027200000228DF80C90FFF77BF803A930460122B8
:102730004FF6FF73FFF752FC284610210122FFF7E6
:102740006FF84FEA18208DF80D002846102100225E
:10275000FFF766F80DF10D01304601224FF6FF73C9
:10276000FFF73CFC284610210122FFF759F82846C4
:10277000102100228DF80E80FFF752F80DF10E01A6
:10278000304601224FF6FF73FFF728FC2846102140
:102790000122FFF745F8204602210022FFF740F80A
:1027A0002C208DF80F00284610210022FFF738F862
:1027B0000DF10F01304601224FF6FF73FFF70EFCBB
:1027C000284610210122FFF72BF820460221012282
:1027D000FFF726F804B0BDE8F08700002DE9F04FC0
:1027E00087B005460C46111A521B18BF4FF0FF3236
:1027F00000290E4648BF4E420129A3EB04004FF0CA
:102800000107A8BF3A46191B18BF4FF0FF31002837
:10281000059044BF434205930128B8BF0F46059871
:10282000DDF840C0864288BF304640F294190490DB
:102830004FEA1C204FF000084FF0000B4FF0000A49
:10284000C2F200090390CDE9016200BFA8B2A1B2B3
:1028500002460B46FFF7AAFE03980026C4F20206C2
:102860008DF81A00304610210022FEF7D9FF4846A5
:102870000DF11A0101224FF6FF73FFF7AFFB30464F
:1028800010210122FEF7CCFF109810218DF81B00BB
:1028900030460022FEF7C4FF48460DF11B0101221D
:1028A0004FF6FF73FFF79AFB304610210122FEF727
:1028B000B7FFDDE901620599049B0BEB060041447B
:1028C000B0EB030B0AF1010AD4BF83461544B1EB08
:1028D00003081FFA8AF0D4BF88463C448342B5D22D
:1028E00007B0BDE8F08F00002DE9F04F85B0154628
:1028F0008A46013A591E1C4692B28BB2514602904A
:10290000FFF754FEA24501944BD20298A84248D248
:10291000DDF83880002740F294144FEA1829C4F2F9
:102920000207C2F200040DF1120B0DF1130600BFF5
:10293000CDF80CA0DDF808A03846102100228DF853
:102940001290FEF76DFF2046594601224FF6FF73A5
:10295000FFF744FB384610210122FEF761FF38469D
:10296000102100228DF81380FEF75AFF20463146D1
:1029700001224FF6FF73FFF731FB38461021012289
:10298000FEF74EFF0AF1010A1FFA8AF0A842D3D3DC
:10299000DDF80CA001990AF1010A1FFA8AF08842B9
:1029A000C6D305B0BDE8F08F2DE9F04F81B000240B
:1029B000C4F2020404F580652846102100224FF07D
:1029C0000009FEF72DFF6420FEF72EFE2846102199
:1029D00001224FF00108FEF723FF6420FEF724FEDA
:1029E0003420C4F201004FF4617101606420FEF7ED
:1029F0001BFE04F50065284602210022FEF710FFA9
:102A000011208DF80300204610210022FEF708FF58
:102A100040F29416C2F200060DF103013046012285
:102A20004FF6FF73FFF7DAFA204610210122FEF776
:102A3000F7FE284602210122FEF7F2FE7820FEF77B
:102A4000F3FD284602210022FEF7EAFE36208DF82B
:102A50000300204610210022FEF7E2FE0DF10301E3
:102A6000304601224FF6FF73FFF7B8FA20461021D7
:102A70000122FEF7D5FE284602210122FEF7D0FEF4
:102A800070208DF80300204610210022FEF7C8FEBA
:102A90000DF10301304601224FF6FF73FFF79EFA56
:102AA000204610210122FEF7BBFE2846022100220B
:102AB000FEF7B6FE3A208DF80300204610210022D2
:102AC000FEF7AEFE0DF10301304601224FF6FF7313
:102AD000FFF784FA204610210122FEF7A1FE2846C6
:102AE00002210122FEF79CFE4FF0050A204610212C
:102AF00000228DF803A0FEF793FE0DF1030130468E
:102B000001224FF6FF73FFF769FA204610210122D8
:102B1000FEF786FE284602210022FEF781FEB22043
:102B20008DF80300204610210022FEF779FE0DF1FA
:102B30000301304601224FF6FF73FFF74FFA20469C
:102B400010210122FEF76CFE284602210122FEF729
:102B500067FE0C272046102100228DF80370FEF737
:102B60005FFE0DF10301304601224FF6FF73FFF7C0
:102B700035FA204610210122FEF752FE2046102190
:102B800000228DF80370FEF74BFE0DF10301304675
:102B900001224FF6FF73FFF721FA20461021012290
:102BA000FEF73EFE2046102100228DF80390FEF72E
:102BB00037FE0DF10301304601224FF6FF73FFF798
:102BC0000DFA204610210122FEF72AFE33208DF84F
:102BD00003002046102100223327FEF721FE0DF1CD
:102BE0000301304601224FF6FF73FFF7F7F9204645
:102BF00010210122FEF714FE2046102100228DF83C
:102C00000370FEF70DFE0DF10301304601224FF671
:102C1000FF73FFF7E3F9204610210122FEF700FEC3
:102C2000284602210022FEF7FBFDB7208DF80300A5
:102C3000204610210022FEF7F3FD0DF1030130467E
:102C400001224FF6FF73FFF7C9F920461021012238
:102C5000FEF7E6FD284602210122FEF7E1FD3520C0
:102C60008DF80300204610210022FEF7D9FD0DF15A
:102C70000301304601224FF6FF73FFF7AFF92046FC
:102C800010210122FEF7CCFD284602210022FEF78A
:102C9000C7FDBB208DF80300204610210022FEF75F
:102CA000BFFD0DF10301304601224FF6FF73FFF720
:102CB00095F9204610210122FEF7B2FD2846022197
:102CC0000122FEF7ADFD32208DF8030020461021D1
:102CD0000022FEF7A5FD0DF10301304601224FF65B
:102CE000FF73FFF77BF9204610210122FEF798FDC4
:102CF000284602210022FEF793FDC2208DF8030032
:102D0000204610210022FEF78BFD0DF10301304615
:102D100001224FF6FF73FFF761F9204610210122CF
:102D2000FEF77EFD284602210122FEF779FD2046AE
:102D3000102100228DF80380FEF772FD0DF10301D2
:102D4000304601224FF6FF73FFF748F92046102165
:102D50000122FEF765FD284602210022FEF760FDF4
:102D6000C3208DF80300204610210022FEF758FDF5
:102D70000DF10301304601224FF6FF73FFF72EF9E4
:102D8000204610210122FEF74BFD28460221012298
:102D9000FEF746FD15208DF8030020461021002285
:102DA000FEF73EFD0DF10301304601224FF6FF73A1
:102DB000FFF714F9204610210122FEF731FD2846C5
:102DC00002210022FEF72CFDC4208DF803002046CE
:102DD00010210022FEF724FD0DF1030130460122EF
:102DE0004FF6FF73FFF7FAF8204610210122FEF795
:102DF00017FD284602210122FEF712FD20208DF842
:102E00000300204610210022FEF70AFD0DF1030108
:102E1000304601224FF6FF73FFF7E0F820461021FD
:102E20000122FEF7FDFC284602210022FEF7F8FCF5
:102E3000C6208DF80300204610210022FEF7F0FC8A
:102E40000DF10301304601224FF6FF73FFF7C6F87C
:102E5000204610210122FEF7E3FC28460221012230
:102E6000FEF7DEFC0F208DF8030020461021002223
:102E7000FEF7D6FC0DF10301304601224FF6FF7339
:102E8000FFF7ACF8204610210122FEF7C9FC2846C6
:102E900002210022FEF7C4FC4FF0D00B2046102187
:102EA00000228DF803B0FEF7BBFC0DF103013046A4
:102EB00001224FF6FF73FFF791F8204610210122FF
:102EC000FEF7AEFC284602210122FEF7A9FCA42051
:102ED0008DF80300204610210022FEF7A1FC0DF121
:102EE0000301304601224FF6FF73FFF777F82046C3
:102EF00010210122FEF794FCA1208DF8030020464A
:102F000010210022FEF78CFC0DF103013046012256
:102F10004FF6FF73FFF762F8204610210122FEF7FB
:102F20007FFC284602210022FEF77AFCE0208DF883
:102F30000300204610210022FEF772FC0DF1030170
:102F4000304601224FF6FF73FFF748F82046102164
:102F50000122FEF765FC284602210122FEF760FCF3
:102F60002046102100228DF803B0FEF759FC0DF128
:102F70000301304601224FF6FF73FFF72FF820467A
:102F800010210122FEF74CFC08208DF8030020469A
:102F900010210022FEF744FC0DF10301304601220E
:102FA0004FF6FF73FFF71AF8204610210122FEF7B3
:102FB00037FC0E208DF803002046102100220E273A
:102FC000FEF72EFC0DF10301304601224FF6FF7390
:102FD000FFF704F8204610210122FEF721FC4FF0F4
:102FE00009092046102100228DF80390FEF718FCF5
:102FF0000DF10301304601224FF6FF73FEF7EEFF9D
:10300000204610210122FEF70BFC20461021002251
:103010008DF80390FEF704FC0DF103013046012208
:103020004FF6FF73FEF7DAFF204610210122FEF76C
:10303000F7FB2046102100228DF803A0FEF7F0FBDD
:103040000DF10301304601224FF6FF73FEF7C6FF74
:10305000204610210122FEF7E3FB4FF0310A204603
:10306000102100228DF803A0FEF7DAFB0DF1030119
:10307000304601224FF6FF73FEF7B0FF20461021C5
:103080000122FEF7CDFB33208DF8030020461021EE
:103090000022FEF7C5FB0DF10301304601224FF679
:1030A000FF73FEF79BFF204610210122FEF7B8FBBD
:1030B00048208DF80300204610210022FEF7B0FBC7
:1030C0000DF10301304601224FF6FF73FEF786FF34
:1030D000204610210122FEF7A3FB17208DF80300E4
:1030E000204610210022FEF79BFB0DF10301304624
:1030F00001224FF6FF73FEF771FF204610210122D7
:10310000FEF78EFB14208DF80300204610210022CC
:10311000FEF786FB0DF10301304601224FF6FF73E7
:10312000FEF75CFF204610210122FEF779FB4FF0ED
:1031300015082046102100228DF80380FEF770FB51
:103140000DF10301304601224FF6FF73FEF746FFF3
:10315000204610210122FEF763FB204610210022A9
:103160008DF803A0FEF75CFB0DF103013046012250
:103170004FF6FF73FEF732FF204610210122FEF7C3
:103180004FFB34208DF80300204610210022FEF76B
:1031900047FB0DF10301304601224FF6FF73FEF7A6
:1031A0001DFF204610210122FEF73AFB284602218E
:1031B0000022FEF735FBE1208DF8030020461021A8
:1031C0000022FEF72DFB0DF10301304601224FF6E0
:1031D000FF73FEF703FF204610210122FEF720FBBC
:1031E000284602210122FEF71BFB20461021002267
:1031F0008DF803B0FEF714FB0DF1030130460122F8
:103200004FF6FF73FEF7EAFE204610210122FEF77B
:1032100007FB08208DF80300204610210022FEF74E
:10322000FFFA0DF10301304601224FF6FF73FEF75E
:10323000D5FE204610210122FEF7F2FA2046102189
:1032400000228DF80370FEF7EBFA0DF10301304612
:1032500001224FF6FF73FEF7C1FE20461021012226
:10326000FEF7DEFA2046102100228DF80390FEF7CB
:10327000D7FA0DF10301304601224FF6FF73FEF736
:10328000ADFE204610210122FEF7CAFA2046102189
:1032900000228DF80390FEF7C3FA0DF103013046CA
:1032A00001224FF6FF73FEF799FE204610210122FE
:1032B000FEF7B6FA2046102100228DF8038015276C
:1032C000FEF7AEFA0DF10301304601224FF6FF730F
:1032D000FEF784FE204610210122FEF7A1FA2046C7
:1032E000102100228DF803A0FEF79AFA0DF10301D8
:1032F000304601224FF6FF73FEF770FE2046102184
:103300000122FEF78DFA33208DF8030020461021AC
:103310000022FEF785FA0DF10301304601224FF637
:10332000FF73FEF75BFE204610210122FEF778FABC
:1033300048208DF80300204610210022FEF770FA85
:103340000DF10301304601224FF6FF73FEF746FEF2
:10335000204610210122FEF763FA17208DF80300A2
:10336000204610210022FEF75BFA0DF103013046E2
:1033700001224FF6FF73FEF731FE20461021012295
:10338000FEF74EFA14208DF803002046102100228B
:10339000FEF746FA0DF10301304601224FF6FF73A6
:1033A000FEF71CFE204610210122FEF739FA2046C6
:1033B000102100228DF80370FEF732FA0DF103019F
:1033C000304601224FF6FF73FEF708FE204610211B
:1033D0000122FEF725FA2046102100228DF803A0D5
:1033E000FEF71EFA0DF10301304601224FF6FF737E
:1033F000FEF7F4FD204610210122FEF711FA3420D9
:103400008DF80300204610210022FEF709FA0DF185
:103410000301304601224FF6FF73FEF7DFFD204621
:1034200010210122FEF7FCF9284602210022FEF7B6
:10343000F7F921208DF80300204610210022FEF725
:10344000EFF90DF10301304601224FF6FF73FEF74D
:10345000C5FD204610210122FEF7E2F9284602218F
:103460000122FEF7DDF9284602210022FEF7D8F9F5
:1034700029208DF80300204610210022FEF7D0F904
:103480000DF10301304601224FF6FF73FEF7A6FD52
:10349000204610210122FEF7C3F92846022101220D
:1034A000FEF7BEF901B0BDE8F08F00002DE9F04F46
:1034B0008BB0159E83464FEA560A3009089314468E
:1034C0000D4601215FEA4A7218BF01EB161000FB9E
:1034D00006F70BEB5600A9190138013982B28BB2FD
:1034E00058462946FFF762F8002F059700F05481EF
:1034F000A6F10C00C1B2800140EA91005FFA80F8A9
:10350000B8F1050F00F24881012000FA08F010F030
:103510002B0F00F041811699A4F120000029089991
:10352000C0B24FEA1121079100F08A8046F66E3151
:1035300000EB4003C0F6000101EB0311029146F2DB
:103540007E51C0F6000101EB0011019147F63E519A
:10355000002740F29414C0F600010022C4F20207D2
:10356000C2F2000401EB80105E4603930090CDF898
:10357000108009E001355E46069A0598DDF8108056
:103580000132824200F00881B8F1030F06920DD09B
:10359000B8F1010F0CD0B8F1000F0BD1039846F22F
:1035A0000A11C0F6000101EB800004E0029802E07D
:1035B000019800E00098104490F800804FF0000956
:1035C00028FA09F0C0072FD0B0B2A9B202460B46C4
:1035D000FEF7ECFF079810218DF82A0038460022EC
:1035E000FEF71EF920460DF12A0101224FF6FF7366
:1035F000FEF7F4FC384610210122FEF711F9089875
:1036000010218DF82B0038460022FEF709F92046DC
:103610000DF12B0101224FF6FF73FEF7DFFC384658
:1036200010210122FEF7FCF80136B0B2A0EB0B002E
:1036300050459FD009F10109B9F1080FC0D19BE7AE
:10364000149900EB4002090A069146F20A11C0F6ED
:10365000000101EB8201019146F27E51C0F60001AA
:1036600001EB0011039147F63E51002540F29416FC
:10367000C0F600010024C4F20205C2F2000601EB0C
:10368000801000270292009006E000BF00270598F6
:103690000134844200F08080B8F1000F10D0B8F1FE
:1036A000010F0BD0B8F1030F0CD1029846F66E3122
:1036B000C0F6000101EB001005E000BF039802E036
:1036C000019800E00098204490F800B007F108004D
:1036D0004FF00009049000BF2BFA09F0C00721D079
:1036E000079810218DF8260028460022FEF798F84A
:1036F00030460DF1260101224FF6FF73FEF76EFCF6
:10370000284610210122FEF78BF8089810218DF829
:10371000270028460022FEF783F830460DF12701E6
:103720001FE000BF069810218DF8280028460022CF
:10373000FEF776F830460AA901224FF6FF73FEF72E
:103740004DFC284610210122FEF76AF8149810213A
:103750008DF8290028460022FEF762F830460DF168
:10376000290101224FF6FF73FEF738FC284610218D
:103770000122FEF755F80137F8B2B0FBFAF101FB70
:103780001A0000283FF482AF09F10109B9F1080FCE
:10379000A2D1049F7BE700BF0BB0BDE8F08F000013
:1037A0002DE9F04F87B0129E1F4692460D46834684
:1037B00003934BB1781EC0B2032807F0030007D271
:1037C0000A22E0B925E000BFB7EE001A25E000BFED
:1037D000B44607F0FC060023012142F2107700BF37
:1037E00004330A46D9B2B14202FB07F1F8D148F2DC
:1037F000A063C0F20103039F5A43664648B1012803
:1038000006D0642302EB82015A43022808BF4A0013
:10381000114601EE101AB8EE411A21EE001ADDE948
:103820001038BDEEC11AB5EE400A7008F1EE10FA7C
:1038300011EE104A06900DDA0020029058462946F3
:103840002D22CDF800800196FFF730FE64420494EB
:103850000BE000BF00200290584629462022049425
:10386000CDF800800196FFF721FE06980AF10104C9
:10387000B146E6B200EB0B0310FB0670184405EBF3
:1038800009010130013182B2059398B28BB2294609
:10389000C346CDF80080FFF727F8A64202D007B054
:1038A000BDE8F08F0498AA464E4600B242F2107866
:1038B0004FF00009049026E00121049A3D46B2FB36
:1038C000F1F14CF6CD42CCF6CC42A1FB0227FA082E
:1038D00002EB82022F46A1EB4201DDE9055241F0E5
:1038E000300110FB025080B2CAB251460025CDE92A
:1038F00000B60295FFF7DAFD09F101095FFA89F0D8
:10390000E1B28842CBD2E1B25FFA89F0C91B109BC9
:10391000814212D1DDE90521002510FB012080B292
:1039200051462E22CDE900B60295FFF7BFFD109B50
:1039300009F1010901345FFA89F06FEA090162189F
:103940001106B9D0A4EB09010239C9B2B446032962
:1039500002D201210AE000BF02F0FC06002501218D
:103960000435EFB2B74201FB08F1F9D1039F12F021
:1039700003026646A1D0012A04D101EB810149006E
:103980009BE700BFBC464FF47A774F43022A4FF0C3
:10399000640208BF01FB02F7394667468DE7000065
:1039A0002DE9F04F81B02DED048B86B00E461699AF
:1039B0009846B0EE408A4FEA5101059103965BB1FB
:1039C000A8F10101C9B2032908F0030C08D20A23A7
:1039D000BCF1000F19D124E0B7EE009A26E000BF39
:1039E00008F0FC010025012642F21074043533462C
:1039F000EEB28E4203FB04F6F8D148F2A061C0F2A9
:103A000001014B43BCF1000F0BD0BCF1010F07D0FB
:103A1000642603EB83017343BCF1020F08BF4B0024
:103A20001E4600EE106A039EB8EE409A0599541C9B
:103A30005FFA84F9169F01EB000B11FB09805844D3
:103A4000F11901300131159D82B21FFA8BF08BB252
:103A500031460095FEF748FFA14505D006B0BDEC04
:103A6000048B01B0BDE8F08F29EE080ABDEEC00A54
:103A70003D4610EE100A42F2107A4FF00009049011
:103A800026E000BF0121049A0027B2FBF1F14CF6B9
:103A9000CD42CCF6CC42A1FB0223DA0802EB820233
:103AA000A1EB4201059A41F0300110FB02B0159ADA
:103AB000149BCDE9002580B2CAB231460297FFF7C8
:103AC000F5FC09F101095FFA89F0E1B28842C5D23B
:103AD000E1B25FFA89F0A1EB0801814212D10599A8
:103AE000149B10FB01B0159980B2CDE90015314649
:103AF0002E2200270297FFF7D9FC09F101090134B2
:103B00005FFA89F06FEA090162181106BAD0A4EBD6
:103B100009010239C9B2032902D201210AE000BF1A
:103B200002F0FC03002501210435EFB29F4201FBA6
:103B30000AF1F9D1039E169D12F00302A3D0012AC7
:103B400004D101EB810149009DE700BF4FF47A7376
:103B50004B43022A4FF0640208BF01FB02F31946EF
:103B600091E700002DE9F04F83B09B461378CBB16D
:103B7000DDE90C9ADDF838800D4606464FEA5A0713
:103B8000541E00BFB0B2DAB229465B46CDE9009AB6
:103B9000CDF80880FFF78AFCA3783E44002B04F19F
:103BA0000104EFD103B0BDE8F08F000010B582B082
:103BB00002F068FA00F028FC01F0E8FD00F08AFB52
:103BC00001F05AFF40F2EC10C2F200000021002484
:103BD000FEF7C4FCFEF7E8FE002000214FF48C72D3
:103BE000F0230094FEF780FE02B0BDE8104001F023
:103BF000D3BB000010B584B040F29C0042F2000C30
:103C000001220021C2F20000C4F2010C4FF4803303
:103C10000124C0F600720391047680F82010C0E9F8
:103C20000A21C46180F83040C0E900C3C0E9021134
:103C3000C0E90414FCF73CFD002818BFFCF776FC33
:103C40000320029040F29C00C2F200006946CDE9D8
:103C50000044FCF76DFC002818BFFCF767FC04B0BB
:103C600010BD000080B540F2E40046F20041C2F20F
:103C70000000C4F200010222002380E80E0000F1DF
:103C80000C014FF4602C4FF4800E81E808508361E2
:103C90008383FDF781F9002808BF80BDBDE880401F
:103CA000FCF744BC80B540F20C1046F60001C2F2AD
:103CB0000000C4F200010222002380E80E0000F19F
:103CC0000C014FF4602C4FF4800E81E808508361A2
:103CD0008383FDF761F9002808BF80BDBDE88040FF
:103CE000FCF724BC80B582B00020019043F6300080
:103CF000C4F202000168002241F480010160006802
:103D0000002100F48000019001983820FDF712FE98
:103D1000382002B0BDE88040FDF7F8BD2DE9F0473E
:103D200086B0002443F6300005940094C4F20200EB
:103D3000016840F2000841F0040101600168C4F22A
:103D4000020801F00401009100990094016808F54F
:103D5000006641F0800101600168002201F08001ED
:103D6000009100990094016842F2130541F00101AD
:103D70000160016801F0010100910099009401685F
:103D800041F002010160006842F2130100F00200FC
:103D9000009000983046FDF743FD40461021002278
:103DA0004FF01009FDF73CFD08F5806A50461021E0
:103DB0000022FDF735FD01AF01950125304639465A
:103DC000CDE902540494FDF743FC40463946CDE961
:103DD0000195CDE90344FDF73BFC4FF4004001A9F8
:103DE00031C140463946FDF733FC50463946CDE9EE
:103DF0000195CDE90344FDF72BFC06B0BDE8F08743
:103E000010B540F2941043F20001C2F20000C4F277
:103E100001014FF4827200234FF0020C4FF4007E38
:103E2000102480E80E000A21C0E9033CC0E9053EE9
:103E3000C461C0E90833C0E90A31FEF75FF8002821
:103E400008BF10BDBDE81040FCF770BBB0B598B01E
:103E5000002540F2EC10C4F201050021C2F200007E
:103E600040F2E7321191CDE90F11CDE90D11CDE905
:103E70000B11CDE90911CDE90711CDE90511CDE906
:103E80000311CDE90111C0E90051C0E90212C0E9F6
:103E900004118161FEF72AFB002818BFFCF746FBDE
:103EA00040F2EC10C2F2000010A9FEF7B5F90028AC
:103EB00018BFFCF73BFB6020099040F2EC10002497
:103EC000C2F2000009A90022CDE90A44CDE90C4460
:103ED000CDE90E44FEF7FCF9002818BFFCF726FBDD
:103EE0000594CDE90344CDE90144089440F2EC1473
:103EF0004FF40050C2F20004069001A92046FEF7DC
:103F000065F9002818BFFCF711FB2068A84201D012
:103F100018B0B0BD002043F630011390C4F2020186
:103F20000A6842F001020A60096801F00101139178
:103F300013994FF4807113910221CDE9141016905A
:103F40000120179005F5803013A9FDF781FB18B00B
:103F5000B0BD0000FEE700007047000070470000A1
:103F600070B582B040F20803C2F200031B6849F644
:103F70008176C1F25E66A3FB06360446700D4FF4EF
:103F80007A73584301906068B0F5827F12D10E4673
:103F900021688868000644D5701C3BD0154600BFD8
:103FA000FDF744FC411B2068B1423DD28068000609
:103FB000F6D436E00198A0B301980138019020684A
:103FC000806800062DD5019858B3019801380190FA
:103FD00020688068000624D5019810B30198013844
:103FE00001902068806800061BD50198C8B101982F
:103FF00001380190206880680006DBD4002002B000
:1040000070BD00BF886800060BD5886800064FF0B9
:104010000000F4D58868000644BF88685FEA006045
:10402000F0D4002002B070BD416821F0E001416091
:104030006168B1F5827F0AD1A168B1F5004F02D065
:10404000B1F5806F03D1016821F040010160A16AE0
:10405000B1F5005F07D1016821F4005101600168EA
:1040600041F400510160012084F85100002084F8DF
:104070005000606D40F020006065032002B070BD0C
:104080007047000080B5FDF7D7FB40F28800C2F210
:10409000000001680131016080BD00004EF68850CB
:1040A000CEF20000016841F4700101604FF0006140
:1040B00040F8801C7047000010B540F6FF3E0368D2
:1040C000C4F2000E40F2004C7045C4F2010C27DC33
:1040D000B0F1804F31D040F20042C4F20002904271
:1040E0002BD040F60002C4F20002904225D041F6E7
:1040F000FF72C4F20002904229DC70453CDCB0F152
:10410000804F5FD040F20042C4F20002904259D08A
:1041100040F60002C4F20002904253D056E000BFC5
:1041200040F60042C4F20002904206D0604504D03E
:104130000022C4F201029042D9D14A6823F07003F0
:10414000134341F6FF72C4F200029042D5DD43F6FC
:10415000FF72C4F20102904222DC42F20002C4F279
:10416000000290422ED00022C4F20102904229D0D7
:10417000604527D02AE000BF40F60042C4F20002AA
:1041800090421FD041F60002C4F20002904219D0C2
:1041900041F60042C4F20002904213D016E000BF84
:1041A00044F20002C4F2010290420BD044F6000235
:1041B000C4F20102904205D044F20042C4F201026E
:1041C000904203D1CA6823F44073134323F0800262
:1041D0004B69D1F800E08C681A430260C46240F475
:1041E0008062C0F828E0624504BF096901630121CB
:1041F000416110BDFEE7000010B540F2900CC2F224
:10420000000C0CEB400E714631F8023F3CF81020D8
:10421000934282BF0A802CF810301346724632F85F
:10422000044F9C4286BF13800C802346714631F8B0
:10423000064F9C4286BF0B8014802346724632F89C
:10424000084F9C4284BF13800C80714631F8023FB6
:104250003CF81020934282BF0A802CF8103013469D
:10426000724632F8044F9C4286BF13800C8023466E
:10427000714631F8064F9C4284BF0B801480734610
:1042800033F8021F3CF81020914282BF1A802CF8AC
:1042900010101146724632F8044F8C4284BF1180D0
:1042A0001C80714631F8022F3CF810309A4284BFCE
:1042B0000B802CF81020BEF8040010BD40F29C00CA
:1042C00040F29001C2F20000C2F200010522FCF7A8
:1042D000F7BA0000FFF7F2BF40F27C00C2F2000024
:1042E0000178002918BF00F0CDBA417801394AB2EF
:1042F000002A48BF062141707047000080B584B095
:104300000020CDE9000040F2E400C2F200000DF10F
:104310000E016A4600F0AEF8BDF80E00012809D083
:1043200080B940F21840C2F20000694600F0CEFFAA
:1043300004B080BD40F21840C2F20000D830694697
:1043400000F0C4FF04B080BD10B582B0002040F280
:104350005C54CDE9000040F20C10C2F20004C2F23D
:1043600000006A46214600F085F8208810B102B0AE
:1043700010BD00BF40F21840C2F200006C30694628
:1043800000F0A4FF02B010BD70B58AB040F2E404A2
:1043900001200021C2F200046D460890CDE906100C
:1043A000CDE90011CDE90211CDE9041120462946DD
:1043B000FCF7C0FB2046FCF719FF20460221FCF762
:1043C00041FB40F20C160E20C2F200060990059047
:1043D00030462946FCF7AEFB3046FCF707FF304677
:1043E0000221FCF72FFB2046FCF700FF3046FCF7CC
:1043F000FDFE20460221FCF725FB30460221FCF79A
:1044000021FB0AB070BD0000FFF7BEBFB0B588B099
:1044100013460C4601AA00210025FCF7FDFB18B14C
:10442000E8B208B0B0BD00BF0198059D2080E8B299
:1044300008B0B0BDB0B586B0054600200091CDE90A
:104440000100CDE903036946284601231446FCF721
:1044500011FB60B16946284622460223FCF70AFB9D
:1044600028B16946284622460423FCF703FB0020B6
:1044700006B0B0BDFFF7CABFFFF7DCBF70B584B0B0
:1044800040F27D00C2F2000090F90000062800F220
:104490002B81DFE810F0070023004B008100C300F0
:1044A0002B017B0140F27C00C2F20000007818254D
:1044B00000280CBF47F67C501F2049F21E520024F2
:1044C000CDE90005C0F6000296200A214FF6FF73E1
:1044D0000294FFF747FB00941AE000BF40F27C0013
:1044E000C2F2000049F21E52067800241825C0F6D8
:1044F000000296200A214FF6FF73CDE90045029491
:10450000FFF730FB002E0CBF47F67C501F200090B9
:1045100049F22252C0F600020A2037214FF6FF73FB
:1045200001950294FFF71EFB009426E040F27C0008
:10453000C2F2000049F21E52067800241825C0F687
:10454000000296200A214FF6FF73CDE90045029440
:10455000FFF708FB49F22252C0F600020A20372179
:104560004FF6FF73CDE900450294FFF7FBFA002EEA
:104570000CBF47F67C501F20009049F21852C0F63D
:104580000002142068214FF6FF7301950294FFF793
:10459000E9FA009434E000BF40F27C00C2F200006F
:1045A00049F21E52067800241825C0F60002962013
:1045B0000A214FF6FF73CDE900450294FFF7D2FAC6
:1045C00049F22252C0F600020A2037214FF6FF734B
:1045D000CDE900450294FFF7C5FA49F21852C0F63A
:1045E0000002142068214FF6FF73CDE900450294C4
:1045F000FFF7B8FA002E0CBF47F67C501F20009042
:1046000049F20C52C0F60002142080214FF6FF73CD
:1046100001950294FFF7A6FA009440E040F27C0076
:10462000C2F2000049F21E52067800241825C0F696
:10463000000296200A214FF6FF73CDE9004502944F
:10464000FFF790FA49F22252C0F600020A20372101
:104650004FF6FF73CDE900450294FFF783FA49F264
:104660001852C0F60002142068214FF6FF73CDE9FE
:1046700000450294FFF776FA49F20C52C0F60002A8
:10468000142080214FF6FF73CDE900450294FFF717
:1046900069FA002E0CBF47F67C501F20009049F2AB
:1046A0001252C0F60002142098214FF6FF730195B4
:1046B0000294FFF757FA009449F20652C0F600023E
:1046C0001420B0214FF6FF7301950294FFF74AFAC8
:1046D00018200026CDE900405AA21420C8214FF628
:1046E000FF730296FFF73EFA04B070BD40F27C0003
:1046F000C2F2000049F21E52067800241825C0F6C6
:10470000000296200A214FF6FF73CDE9004502947E
:10471000FFF728FA49F22252C0F600020A20372198
:104720004FF6FF73CDE900450294FFF71BFA49F2FB
:104730001852C0F60002142068214FF6FF73CDE92D
:1047400000450294FFF70EFA49F20C52C0F600023F
:10475000142080214FF6FF73CDE900450294FFF746
:1047600001FA49F21252C0F60002142098214FF6C5
:10477000FF73CDE900450294FFF7F4F9002E0CBF5A
:1047800047F67C501F20009096E700BF40F27C0067
:10479000C2F2000049F21E52057800241826C0F625
:1047A000000296200A214FF6FF73CDE900460294DD
:1047B000FFF7D8F949F22252C0F600020A20372149
:1047C0004FF6FF73CDE900460294FFF7CBF949F2AB
:1047D0001852C0F60002142068214FF6FF73CDE98D
:1047E00000460294FFF7BEF949F20C52C0F60002EF
:1047F000142080214FF6FF73CDE900460294FFF7A5
:10480000B1F949F21252C0F60002142098214FF675
:10481000FF73CDE900460294FFF7A4F949F206526E
:10482000C0F600021420B0214FF6FF73CDE9004618
:104830000294FFF797F91F24002D08BF47F67C5418
:1048400046E700BF4B4420203A00000080B540F20C
:10485000800EC2F2000E9EF80030632B84BF4FF032
:10486000FF3080BD40F2605CC2F2000C4CF83300B7
:10487000581C0CEBC3028EF8000000209180D18000
:1048800080BD000040F20C00C2F2000090F9002050
:10489000032AD1B222D0022A3ED0012A40F09680CB
:1048A00040F27D02C2F2000292F90020062A00F2D4
:1048B0008D80DFE802F03F058D9BA9B7C50000BFE2
:1048C00040F21840C2F2000090F83C1001314AB2A8
:1048D000022AC8BF002180F83C10704740F27D02D8
:1048E000C2F2000292F90020062A88BF7047DFE872
:1048F00002F0210529374553610000BF40F21840FE
:10490000C2F2000090F8141101314AB2022AC8BF65
:10491000002180F81411704740F27D02C2F20002BB
:1049200092F90020062A51D8DFE802F00498A6B4D4
:10493000C2D0DE0001314AB2032AC8BF0121017092
:10494000704700BF40F21840C2F2000090ED4C0AE0
:10495000B7EE001A30EE010A80ED4C0A704700BF36
:1049600040F21840C2F2000090ED4D0AB7EE001A76
:1049700030EE010A80ED4D0A704700BF40F218404A
:10498000C2F2000090ED4E0AB7EE001A30EE010AB6
:1049900080ED4E0A704700BF40F21840C2F200009E
:1049A00090ED4F0AB7EE001A30EE010A80ED4F0A83
:1049B000704700BF40F21840C2F2000090ED500A6C
:1049C000B6EE001A30EE010A80ED500A704700BFC3
:1049D00040F21840C2F2000090ED160AB7EE001A3D
:1049E00030EE010A80ED160A704700BF40F2184011
:1049F000C2F2000090ED170AB7EE001A30EE010A7D
:104A000080ED170A704700BF40F21840C2F2000064
:104A100090ED180AB7EE001A30EE010A80ED180A80
:104A2000704700BF40F21840C2F2000090ED190A32
:104A3000B7EE001A30EE010A80ED190A704700BF88
:104A400040F21840C2F2000090ED1A0AB6EE001AC9
:104A500030EE010A80ED1A0A704700BF40F218409C
:104A6000C2F2000090F8A81001314AB2022AC8BF71
:104A7000002180F8A810704740F21840C2F20000F0
:104A800090ED310AB7EE001A30EE010A80ED310ADE
:104A9000704700BF40F21840C2F2000090ED320AA9
:104AA000B7EE001A30EE010A80ED320A704700BFFF
:104AB00040F21840C2F2000090ED330AB7EE001A3F
:104AC00030EE010A80ED330A704700BF40F2184013
:104AD000C2F2000090ED340AB7EE001A30EE010A7F
:104AE00080ED340A704700BF40F21840C2F2000067
:104AF00090ED350AB6EE001A30EE010A80ED350A67
:104B00007047000040F20C00C2F2000090F9000073
:104B100003280FD0022819D0012818BF704740F28F
:104B2000E40040F21841C2F20000C2F2000100F0BD
:104B30005FBA00BF40F21840C2F2000000F1D80195
:104B400040F2E400C2F2000000F052BA40F2184015
:104B5000C2F2000000F16C0140F20C10C2F2000041
:104B600000F046BA40F20C00C2F2000090F90000DA
:104B700003280BD0022811D0012818BF704740F23B
:104B80001840C2F2000000F067BA00BF40F21840BF
:104B9000C2F20000D83000F05FBA00BF40F2184007
:104BA000C2F200006C3000F057BA000040F20C0076
:104BB000C2F2000090F90000032811D002281FD093
:104BC000012818BF704740F2184140F2E400C2F2D9
:104BD00000010022C2F200004A7000F0F9BA00BFE2
:104BE00040F21842C2F2000240F2E400002302F157
:104BF000D801C2F2000082F8D93000F0E9BA00BF53
:104C000040F21842C2F2000240F20C10002302F1FE
:104C10006C01C2F2000082F86D3000F0D9BA0000D9
:104C200040F20C00C2F2000090F90000032811D0FD
:104C300002281FD0012818BF704740F2184140F2E7
:104C4000E400C2F200010122C2F200004A7000F04A
:104C500009BB00BF40F21842C2F2000240F2E40079
:104C6000012302F1D801C2F2000082F8D93000F02D
:104C7000F9BA00BF40F21842C2F2000240F20C1032
:104C8000012302F16C01C2F2000082F86D3000F0E5
:104C9000E9BA000040F20C00C2F2000090F90020D6
:104CA000032AD1B222D0022A3ED0012A40F09680B7
:104CB00040F27D02C2F2000292F90020062A00F2C0
:104CC0008D80DFE802F03F058D9BA9B7C50000BFCE
:104CD00040F21840C2F2000090F83C1001394AB28C
:104CE000002A48BF022180F83C10704740F27D0244
:104CF000C2F2000292F90020062A88BF7047DFE85E
:104D000002F0210529374553610000BF40F21840E9
:104D1000C2F2000090F8141101394AB2002A48BFCB
:104D2000022180F81411704740F27D02C2F20002A5
:104D300092F90020062A51D8DFE802F00498A6B4C0
:104D4000C2D0DE0001394AB2012AB8BF0321017086
:104D5000704700BF40F21840C2F2000090ED4C0ACC
:104D6000BFEE001A30EE010A80ED4C0A704700BF1A
:104D700040F21840C2F2000090ED4D0ABFEE001A5A
:104D800030EE010A80ED4D0A704700BF40F2184036
:104D9000C2F2000090ED4E0ABFEE001A30EE010A9A
:104DA00080ED4E0A704700BF40F21840C2F200008A
:104DB00090ED4F0ABFEE001A30EE010A80ED4F0A67
:104DC000704700BF40F21840C2F2000090ED500A58
:104DD000BEEE001A30EE010A80ED500A704700BFA7
:104DE00040F21840C2F2000090ED160ABFEE001A21
:104DF00030EE010A80ED160A704700BF40F21840FD
:104E0000C2F2000090ED170ABFEE001A30EE010A60
:104E100080ED170A704700BF40F21840C2F2000050
:104E200090ED180ABFEE001A30EE010A80ED180A64
:104E3000704700BF40F21840C2F2000090ED190A1E
:104E4000BFEE001A30EE010A80ED190A704700BF6C
:104E500040F21840C2F2000090ED1A0ABEEE001AAD
:104E600030EE010A80ED1A0A704700BF40F2184088
:104E7000C2F2000090F8A81001394AB2002A48BFD7
:104E8000022180F8A810704740F21840C2F20000DA
:104E900090ED310ABFEE001A30EE010A80ED310AC2
:104EA000704700BF40F21840C2F2000090ED320A95
:104EB000BFEE001A30EE010A80ED320A704700BFE3
:104EC00040F21840C2F2000090ED330ABFEE001A23
:104ED00030EE010A80ED330A704700BF40F21840FF
:104EE000C2F2000090ED340ABFEE001A30EE010A63
:104EF00080ED340A704700BF40F21840C2F2000053
:104F000090ED350ABEEE001A30EE010A80ED350A4A
:104F10007047000040F20C00C2F2000090F900005F
:104F200003280FD0022819D0012818BF704740F27B
:104F3000E40040F21841C2F20000C2F2000100F0A9
:104F400097B800BF40F21840C2F2000000F1D8014B
:104F500040F2E400C2F2000000F08AB840F21840CB
:104F6000C2F2000000F16C0140F20C10C2F200002D
:104F700000F07EB840F20C00C2F2000090F9000090
:104F800003280BD0022811D0012818BF704740F227
:104F90001840C2F2000000F01DBA00BF40F21840F5
:104FA000C2F20000D83000F015BA00BF40F218403D
:104FB000C2F200006C3000F00DBA000010B582B0F3
:104FC000FFF75CFA00F062FE4FF6FF740A206821DA
:104FD0000A22F0230094FDF701FC4FF4877068214A
:104FE0004FF48772F0230094FDF7F8FB02B010BD78
:104FF00080B582B091F93C20022A05D0012A17D051
:105000009AB991F9001017E091F900104FF0FF32B2
:1050100001F50071CDF803200092FB228DF80720E6
:1050200089B26A460823FFF727FA02B080BD00BFA5
:1050300091F9001001F580714FF0FF32CDF8032097
:105040000092FB228DF8072089B26A460823FFF7F9
:1050500013FA02B080BD00000021C0E91011C0E9C0
:1050600012110165C0E91611C0E918118166704777
:10507000B0B582B091F93C20022A6FD0012A7BD0D2
:10508000002A76D191ED100AB2EE095A9FED4C6AD2
:1050900030EE050A91ED111A20EE060AB3EE095A18
:1050A00080EE050AB3EE0E5A31EE051A9FED455A11
:1050B0009FED456A91ED133A21EE051A91ED144AE0
:1050C00081EE061A9FED416A23EE053A91ED122A10
:1050D00083EE063A24EE054AB1EE046A84EE064AEF
:1050E000B2EE046A32EE062A22EE052AB3EE045A24
:1050F00082EE052ABDEEC00A10EE102ABDEEC10AEE
:1051000010EE103A91F900C0BDEEC30A10EE101A6D
:10511000150ABDEEC40A8DF801201A0910EE10EA36
:105120008DF80220BDEEC20A1A0110EE104A42EAC2
:1051300011228DF804104FEA1E118DF80510210A76
:1051400041EA0E118DF800508DF803208DF80610FD
:105150008DF807401FFA8CF12BE000BF91F9002079
:10516000496C02F50072009191B26A460423FFF780
:1051700083F902B0B0BD00BF91F90020D1E9103130
:1051800002F580721D0A8DF800308DF801501D0C5B
:105190001B0E8DF803300B0A8DF804108DF80530C6
:1051A0000B0C090E8DF8071091B28DF802508DF896
:1051B00006306A460823FFF75FF902B0B0BD00BFB2
:1051C00000FF7F4700F07F45000070420000FA4377
:1051D00010B582B00C4691F93C10022912D0012979
:1051E00022D091BB94F900104FF0FF32CDF803208C
:1051F0000092FD228DF8072089B26A460823FFF746
:105200003BF922E094F900104FF0FF3201F50071F4
:10521000CDF803200092FD228DF8072089B26A465E
:105220000823FFF729F910E094F900104FF0FF323E
:1052300001F58071CDF803200092FD228DF8072042
:1052400089B26A460823FFF717F90020C4E9100065
:10525000C4E912002065C4E91600C4E91800A0667C
:1052600002B010BD80B582B091F93C20022A05D071
:10527000012A17D09AB991F9001017E091F900109E
:105280004FF0FF3201F50071CDF803200092FC22AF
:105290008DF8072089B26A460823FFF7EDF802B0BF
:1052A00080BD00BF91F9001001F580714FF0FF3211
:1052B000CDF803200092FC228DF8072089B26A46BF
:1052C0000823FFF7D9F802B080BD000080B50A7846
:1052D000B3EE091A02F00F0242600A789FED2B2A02
:1052E00012098260B1F801209FED2A3A52BAC260D9
:1052F000CB7891F804C01B0143EA1C1CC0F810C015
:1053000000EE102A0B79B8EEC00A91F805E020EE05
:10531000010A03F00F0380EE020A01EE10CA9FEDAE
:105320001C2A4EEA0323B8EEC11A21EE021A02EE3D
:10533000103A81EE031AB8EEC22AB3EE044A22EE06
:10534000042A82EE032ABAEE093A436130EE030AD8
:1053500080ED080ABBEE0E0A31EE000A80ED090A64
:10536000BAEE040A32EE000A80ED0A0A8A7900EEEB
:10537000102AB8EE400A80ED0D0AC97900EE101A25
:10538000B8EE400A80ED0E0A80BD00BF00FF7F47E7
:105390000000704200F07F4510B540F21844C2F2A0
:1053A000000420464FF4A271FAF7F4FF0120022115
:1053B000207084F83C1084F8541084F86C0084F851
:1053C000A81084F8C01084F8D81084F8141184F858
:1053D0002C1110BD80B500F1580E9EE80E504030E3
:1053E00080E80E5080BD000080B50020FEF704FF6D
:1053F00040F2700EC2F2000E01EE100A9EED020A9B
:10540000B8EE411A30EE412AB2EE043AB4EE432A25
:10541000F1EE10FAAEF8060006DCBAEE043AB4EE8D
:10542000432AF1EE10FA09DA9FED202A31EE401AF4
:1054300021EE021A31EE000A8EED020AA0F164029A
:1054400093B24FF69D7C63454FF0000338BF0123B4
:105450008EF80030A0F6C4139BB24FF6D56C6345AE
:105460004FF0000338BF01238EF80130A0F6AC5393
:105470009BB24FF645518B424FF0000138BF0121DE
:105480008EF80210A0F5E16189B2A0F57A700022D1
:1054900061454FF0000180B238BF01218EF8031042
:1054A000604538BF01228EF8042080BDCDCCCC3DB4
:1054B000FCF7BCB970470000FCF7A4B970B5002038
:1054C000C4F202004FF40041FFF7F6FF0446FFF775
:1054D000EFFF40F23025C2F200052969AB680A1BD4
:1054E000B2FA82F22E7DD5F800E04FEA521C6645F2
:1054F000A0EB03030AD1687DA14211D1734515D9F0
:10550000002804BF0120687510E000BF002173452A
:105510003CBF1844A0EB0E00C5E9020106E000BF45
:10552000734503D9012804BF0020687540F270005C
:10553000C2F20000047885F814C0FFF7B9FF296EA5
:10554000AB6D0E1BB6FA86F695F86420D5F850E0E0
:105550004FEA561C6245A0EB03030BD195F865009A
:10556000A14211D1734516D9002804BF012085F846
:10557000650010E0002173453CBF1844A0EB0E000D
:10558000C5E9160107E000BF734504D9012804BF2F
:10559000002085F8650040F27100C2F20000047836
:1055A00085F864C0FFF784FFD5F8B010D5F8A830AF
:1055B0000E1BB6FA86F695F8B420D5F8A0E04FEAAF
:1055C000561C6245A0EB03030CD195F8B500A1422F
:1055D00012D1734517D9002804BF012085F8B50002
:1055E00011E000BF002173453CBF1844A0EB0E0042
:1055F000C5E92A0107E000BF734504D9012804BFAB
:10560000002085F8B50040F27200C2F20000047874
:1056100085F8B4C0FFF74CFFD5F80011D5F8F83085
:105620000E1BB6FA86F695F80421D5F8F0E04FEA9D
:10563000561C6245A0EB03030CD195F80501A1426D
:1056400012D1734517D9002804BF012085F8050140
:1056500011E000BF002173453CBF1844A0EB0E00D1
:10566000C5E93E0107E000BF734504D9012804BF26
:10567000002085F8050140F27400C2F200000478B1
:1056800085F804C1FFF714FFD5F85011D5F848315B
:105690000E1BB6FA86F695F85421D5F840E14FEA8C
:1056A000561C6245A0EB03030CD195F85501A142AD
:1056B00012D1734517D9002804BF012085F8550180
:1056C00011E000BF002173453CBF1844A0EB0E0061
:1056D000C5E9520107E000BF734504D9012804BFA2
:1056E000002085F8550140F27300C2F200000478F2
:1056F00085F854C1FFF7DCFED5F8A011D5F8983134
:105700000E1BB6FA86F695F8A421D5F890E14FEA7B
:10571000561C6245A0EB03030CD195F8A501A142EC
:1057200014D173450ED968B9012085F8A50185F813
:10573000A4C170BD734513D21844A0EB0E00002124
:10574000C5E9660185F8A4C170BD00BF7345F9D9EC
:105750000128F7D1002085F8A50185F8A4C170BD06
:105760000021C5E9660185F8A4C170BD40F681003D
:10577000C2F20000017801310170704740F68000EC
:10578000C2F200000178013101707047B0B5FFF737
:1057900091FE40F23020C2F2000045F6F57245F667
:1057A000F974C0F6000245F26D73C0F6000400F112
:1057B000400EC0F600038EE81C0045F6794245F61F
:1057C000F174C0F60002C0F6000400F190071CC797
:1057D00045F27D7245F67144C0F60002C0F6000441
:1057E00000F1E00700211CC745F6754400F59877E5
:1057F0000A25C0E9021101614175C0E90611016283
:105800004FF4A06CC0E91611016680F86510C0E97C
:105810001A11016780F874104FF0050EC0E92A11C3
:10582000C0F8B01080F8B510C0E92E11C0F8C01053
:10583000C0E93E11C0F8001180F80511C0E942111D
:10584000C0F81011C0F600041CC7C0E95211C0F81E
:10585000501180F85511C0E95611C0F8601145F695
:105860004D42C0E96611C0F8A01180F8A51180F87A
:10587000B411C0E96A11C0F8B01144F2D921056031
:10588000A0F824C0056580F875E0C0F8A050A0F825
:10589000C4C0C0F8F050A0F814C1C0F84051A0F83E
:1058A00064C1C0F6000245F6CD0400F5C07CC0F826
:1058B000905180F8B5E1C0F6000100F5E870C0F63F
:1058C00000048CE81C001AC0B0BD000040F6820045
:1058D000C2F2000001780131017070472DE9F04FEC
:1058E00081B0FFF7EBFD40F2302548F6B8580024B0
:1058F000C2F200050526C0F206084FF0000B4FF07B
:10590000000918E0787D002837D0072087F82500A7
:10591000022087F8240000BF09EB890005EB001086
:105920004430006880470BF1500BBBF5F07F09F164
:10593000010900F0778005EB0B0787F82560FFF77A
:10594000B7FDB969884213D997F82400042814D800
:10595000DFE800F004220E3A480000BF787D60B115
:10596000FFF7A6FDF861012087F8240005E000BFDD
:10597000787D002808BF87F8244097F8250008287C
:1059800042D00728C8D00628CDD109EB890005EB05
:1059900000104030C5E700BF97F815A0FFF788FD5D
:1059A000BAF1000F34D0F969401AB0F5C86FE4D9E4
:1059B000FFF77EFDF861082087F82500042087F8AE
:1059C000240007F14800ACE7FFF772FDF969401ABF
:1059D00080087C287FF696AF062087F8250087F898
:1059E0002440D2E7787DC8B1FFF762FDF969401A1B
:1059F00047F69161C3F6FB2148434FEA301040451A
:105A0000BBD8082087F8250007F1480089E700BFC8
:105A10003862032087F82400AFE700BF87F82440EE
:105A2000ABE700BF01B0BDE8F08F000080B586B0E5
:105A3000002043F6300105900090C4F202010A688C
:105A400042F004020A60096801F004010091009923
:105A50000121CDE9030040F60000CDE90111C4F2B7
:105A6000020001A9FBF7F4FD06B080BD0022FBF7A0
:105A7000D7BE0000FBF7CCBE10B5FFF7D7FF40F252
:105A80001044C2F20004A1882068FFF7EFFFA1884C
:105A90002068FFF7EBFFA1882068FFF7E7FFA188E8
:105AA0002068FFF7E3FFA1882068FFF7DFFFA188E8
:105AB0002068FFF7DBFF40F600000121C4F202007E
:105AC000A18001212060FFF7D1FF2068A188BDE8F7
:105AD0001040FFF7CBBF0000B0B543F2333140F2C6
